:100000000C94E8000C9405010C9405010C94050176
:100010000C9405010C9405010C9405010C94050148
:100020000C9405010C9405010C9405010C94050138
:100030000C9405010C9405010C9405010C94050128
:100040000C9405010C9405010C9405010C94050118
:100050000C9405010C9405010C9405010C94050108
:100060000C9405010C940501BC01A6018F018301CC
:100070007701690156014101290112010201F100D4
:10008000DF00CB00B900A70098008C00414920692F
:100090006E697420696E3A00414920666F7263652B
:1000A000642073746F7000414920737461747573B8
:1000B0003A2052455455524E0041492073746174A0
:1000C00075733A2041545441434B004149207374A5
:1000D000617475733A20545241434B494E47004175
:1000E00049207374617475733A20534541524348F3
:1000F000004149207374617475733A2041524D4533
:1001000044004149207374617475733A2049444C2A
:1001100045004943434D20525820425546464552DA
:1001200020636C6561726564004943434D205258F9
:1001300020425546464552204F564552464C4F5751
:10014000004943434D20525820627566666572200F
:10015000646174613A004943434D2053656E64699C
:100160006E6720646174613A00436D64206E6F7441
:1001700020666F756E64004D435532206F6E6C695A
:100180006E65004D435531206F6E6C696E65004C95
:100190006F6720627566666572696E672064697351
:1001A00061626C6564004C6F67206275666665729B
:1001B000696E6720656E61626C65640054582062E8
:1001C0007566666572206F766572666C6F77210062
:1001D00011241FBECFEFD8E0DEBFCDBF11E0A0E0FD
:1001E000B1E0E6ECF6E002C005900D92AE32B10748
:1001F000D9F722E0AEE2B1E001C01D92AA37B20702
:10020000E1F70E94E4020C9461030C940000CF9289
:10021000DF92EF92FF92CF93DF9300D000D0CDB763
:10022000DEB769837A838B839C83E4E0220F331FDC
:10023000441F551FEA95D1F70E94010369017A0115
:1002400081E0C81AD108E108F10899278F2D7E2D89
:100250006D2D85EC90E00E94CE026C2D84EC90E038
:100260000E94CE0240E061E080EC90E00E94D40267
:1002700060E081EC90E00E94CE0241E064E081EC1D
:1002800090E00E94D40241E063E081EC90E00E94A3
:10029000D40240E066E082EC90E00E94D40240E0AC
:1002A00067E082EC90E00E94D40240E064E082ECDF
:1002B00090E00E94D40240E065E082EC90E00E9471
:1002C000D40241E061E082EC90E00E94D40241E07F
:1002D00062E082EC90E00E94D40240E060E082ECB8
:1002E00090E00F900F900F900F90DF91CF91FF90C3
:1002F000EF90DF90CF900C94D402682F8091C000D3
:1003000085FFFCCF86EC90E00C94CE0286EC90E06A
:100310000C94D10220912E0130912F01211531052D
:1003200021F02130310519F008950C947D01E09100
:100330000001F091010192E0EC35F90728F4819376
:10034000F0930101E093000108950F931F93CF9361
:10035000DF93EC018C010B591F4F8991882319F011
:10036000C017D10729F4DF91CF911F910F91089504
:100370000E948A01F2CF8F929F92AF92BF92CF924A
:10038000DF92EF92FF920F931F93CF93DF93CDB73E
:10039000DEB763970FB6F894DEBF0FBECDBF2C87D4
:1003A0003D874E875F87688B798B8A8B9B8BCA884A
:1003B000DB886C857D8528E0E5E2F1E0CE010196E1
:1003C000DC0101900D922A95E1F7FB0140E05C0110
:1003D0002E2F9F2F819181116CC0493008F048E089
:1003E00050E06F5F7F4FC5010E94230375014E01EE
:1003F00089E0880E911CF70181917F010E948A019A
:10040000E814F904C1F78AE30E948A018E859F856A
:10041000A889B9891A821982AE014D5F5F4F29E020
:10042000FA0111922A95E9F74AE0B5010E942C03DE
:1004300075015E01FBE0AF0EB11CF70181917F01F8
:100440000E948A01AE14BF04C1F780E20E948A01B3
:10045000B12C7601FF2483E0EE0CFF1C8A95E1F7B6
:10046000C7018E5F9E4F7C01F701EB0DF11D80816E
:10047000811129C080E20E948A01C8010E94A50161
:1004800093E0C916D10419F18AE063960FB6F89487
:10049000DEBF0FBECDBFDF91CF911F910F91FF90B7
:1004A000EF90DF90CF90BF90AF909F908F900C9483
:1004B0008A018F3231F04F5F262F972F622F792FCD
:1004C00087CF40E0FBCF0E948A01B394CDCF6396E3
:1004D0000FB6F894DEBF0FBECDBFDF91CF911F9155
:1004E0000F91FF90EF90DF90CF90BF90AF909F90D3
:1004F0008F90089581E090E090932F0180932E01DA
:10050000089510922F0110922E010895E0E3F1E07A
:10051000F0930101E093000110820895CF93DF93DF
:100520008091000190910101C0E3D1E0805391409E
:1005300031F4DF91CF91089589910E947D018091DE
:10054000000190910101C817D907B0F38C55924072
:10055000A8F0C0912E01D0912F01C130D10521F416
:1005600010922F0110922E018AE00E947D01C1306D
:10057000D10521F4D0932F01C0932E01DF91CF91AB
:100580000C94860281E020910001309101012C55EC
:10059000324008F480E008950C94A501FC016083CA
:1005A0000895FC0180810895FC0181E090E001C084
:1005B000880F6A95EAF79081411104C080958923DC
:1005C00080830895892BFCCF20E835E240E050E09D
:1005D00060E074E284EF90E00E940701209AC1E09D
:1005E0002FEF83ED90E3215080409040E1F700C071
:1005F000000085B18C2785B982E291E00E94CC028F
:10060000EFCFA1E21A2EAA1BBB1BFD010DC0AA1F32
:10061000BB1FEE1FFF1FA217B307E407F50720F06B
:10062000A21BB30BE40BF50B661F771F881F991FE6
:100630001A9469F760957095809590959B01AC012F
:10064000BD01CF010895FB01DC0102C001900D92B4
:1006500041505040D8F70895BB274A3031F49923D0
:1006600022F4BDE2909581959F4F0C943803BB27EF
:10067000FB015527AA27880F991FAA1FA41710F05E
:10068000A41B83955051B9F7A05DAA3308F0A95D6A
:10069000A193009779F7B111B1931192CB010C940A
:1006A0005103DC01FC01672F71917723E1F7329749
:1006B00004C07C916D9370836291AE17BF07C8F33D
:0606C0000895F894FFCF3D
:1006C6003001494E464F000000005741524E494EF8
:1006D60047004552524F5200000044415441000029
:0E06E600000058580020202020202020200056
:00000001FF
